{
  "contractName": "Campaign",
  "abi": [
    {
      "inputs": [],
      "name": "isOwner",
      "outputs": [
        {
          "internalType": "bool",
          "name": "",
          "type": "bool"
        }
      ],
      "stateMutability": "view",
      "type": "function",
      "constant": true
    },
    {
      "inputs": [],
      "name": "totalFunds",
      "outputs": [
        {
          "internalType": "uint256",
          "name": "",
          "type": "uint256"
        }
      ],
      "stateMutability": "view",
      "type": "function",
      "constant": true
    },
    {
      "inputs": [],
      "name": "donate",
      "outputs": [],
      "stateMutability": "payable",
      "type": "function",
      "payable": true
    },
    {
      "inputs": [],
      "name": "collectedFunds",
      "outputs": [
        {
          "internalType": "uint256",
          "name": "",
          "type": "uint256"
        }
      ],
      "stateMutability": "view",
      "type": "function",
      "constant": true
    },
    {
      "inputs": [],
      "name": "withdrawal",
      "outputs": [],
      "stateMutability": "payable",
      "type": "function",
      "payable": true
    }
  ],
  "bytecode": "0x6080604052336000806101000a81548173ffffffffffffffffffffffffffffffffffffffff021916908373ffffffffffffffffffffffffffffffffffffffff16021790555061028b806100536000396000f3fe60806040526004361061004a5760003560e01c8063642566111461004f5780638f32d59b1461007a578063968ed600146100a9578063d4e93292146100d4578063ed88c68e146100de575b600080fd5b34801561005b57600080fd5b506100646100e8565b6040518082815260200191505060405180910390f35b34801561008657600080fd5b5061008f6100f2565b604051808215151515815260200191505060405180910390f35b3480156100b557600080fd5b506100be610149565b6040518082815260200191505060405180910390f35b6100dc61014f565b005b6100e6610243565b005b6000600154905090565b60008060009054906101000a900473ffffffffffffffffffffffffffffffffffffffff1673ffffffffffffffffffffffffffffffffffffffff163373ffffffffffffffffffffffffffffffffffffffff1614905090565b60015481565b6101576100f2565b6101c9576040517f08c379a00000000000000000000000000000000000000000000000000000000081526004018080602001828103825260138152602001807f596f7520617265206e6f7420616c6c6f7765640000000000000000000000000081525060200191505060405180910390fd5b6000600154905060006001819055506000809054906101000a900473ffffffffffffffffffffffffffffffffffffffff1673ffffffffffffffffffffffffffffffffffffffff166108fc829081150290604051600060405180830381858888f1935050505015801561023f573d6000803e3d6000fd5b5050565b3460016000828254019250508190555056fea2646970667358221220c2738f3ee722b510400cea0923636f76d157a4e565291c78ef6d97f43e10f7f964736f6c63430006020033",
  "source": "pragma solidity ^0.6.2;\n\nimport \"./Ownable.sol\";\n\ncontract Campaign is Ownable{\n    \n    uint public totalFunds;\n    \n    function donate() public payable {\n        totalFunds += msg.value;\n    }\n\n    function collectedFunds() public  view returns  (uint) {\n        return totalFunds;\n    }\n    \n    function withdrawal() public  onlyOwner payable {\n        uint funds = totalFunds;\n        totalFunds = 0;\n        _owner.transfer(funds);\n    }\n    \n    \n}",
  "sourcePath": "/home/pandu/Projek/simple_dapp/contracts/Campaign.sol",
  "compiler": {
    "name": "solc",
    "version": "0.6.2+commit.bacdbe57.Emscripten.clang"
  },
  "schemaVersion": "3.4.1",
  "updatedAt": "2021-08-01T03:49:07.040Z",
  "networkType": "ethereum",
  "devdoc": {
    "methods": {}
  },
  "userdoc": {
    "methods": {}
  }
}